{
  "_format": "hh-sol-artifact-1",
  "contractName": "MyEpicNFT",
  "sourceName": "contracts/MyEpicNFT.sol",
  "abi": [
    {
      "inputs": [],
      "stateMutability": "nonpayable",
      "type": "constructor"
    },
    {
      "anonymous": false,
      "inputs": [
        {
          "indexed": true,
          "internalType": "address",
          "name": "owner",
          "type": "address"
        },
        {
          "indexed": true,
          "internalType": "address",
          "name": "approved",
          "type": "address"
        },
        {
          "indexed": true,
          "internalType": "uint256",
          "name": "tokenId",
          "type": "uint256"
        }
      ],
      "name": "Approval",
      "type": "event"
    },
    {
      "anonymous": false,
      "inputs": [
        {
          "indexed": true,
          "internalType": "address",
          "name": "owner",
          "type": "address"
        },
        {
          "indexed": true,
          "internalType": "address",
          "name": "operator",
          "type": "address"
        },
        {
          "indexed": false,
          "internalType": "bool",
          "name": "approved",
          "type": "bool"
        }
      ],
      "name": "ApprovalForAll",
      "type": "event"
    },
    {
      "anonymous": false,
      "inputs": [
        {
          "indexed": false,
          "internalType": "address",
          "name": "sender",
          "type": "address"
        },
        {
          "indexed": false,
          "internalType": "uint256",
          "name": "tokenId",
          "type": "uint256"
        }
      ],
      "name": "NewEpicNFTMinted",
      "type": "event"
    },
    {
      "anonymous": false,
      "inputs": [
        {
          "indexed": true,
          "internalType": "address",
          "name": "from",
          "type": "address"
        },
        {
          "indexed": true,
          "internalType": "address",
          "name": "to",
          "type": "address"
        },
        {
          "indexed": true,
          "internalType": "uint256",
          "name": "tokenId",
          "type": "uint256"
        }
      ],
      "name": "Transfer",
      "type": "event"
    },
    {
      "inputs": [
        {
          "internalType": "address",
          "name": "to",
          "type": "address"
        },
        {
          "internalType": "uint256",
          "name": "tokenId",
          "type": "uint256"
        }
      ],
      "name": "approve",
      "outputs": [],
      "stateMutability": "nonpayable",
      "type": "function"
    },
    {
      "inputs": [
        {
          "internalType": "address",
          "name": "owner",
          "type": "address"
        }
      ],
      "name": "balanceOf",
      "outputs": [
        {
          "internalType": "uint256",
          "name": "",
          "type": "uint256"
        }
      ],
      "stateMutability": "view",
      "type": "function"
    },
    {
      "inputs": [
        {
          "internalType": "uint256",
          "name": "tokenId",
          "type": "uint256"
        }
      ],
      "name": "getApproved",
      "outputs": [
        {
          "internalType": "address",
          "name": "",
          "type": "address"
        }
      ],
      "stateMutability": "view",
      "type": "function"
    },
    {
      "inputs": [],
      "name": "getTotalNFTsMintedSoFar",
      "outputs": [
        {
          "internalType": "uint256",
          "name": "",
          "type": "uint256"
        }
      ],
      "stateMutability": "view",
      "type": "function"
    },
    {
      "inputs": [
        {
          "internalType": "address",
          "name": "owner",
          "type": "address"
        },
        {
          "internalType": "address",
          "name": "operator",
          "type": "address"
        }
      ],
      "name": "isApprovedForAll",
      "outputs": [
        {
          "internalType": "bool",
          "name": "",
          "type": "bool"
        }
      ],
      "stateMutability": "view",
      "type": "function"
    },
    {
      "inputs": [],
      "name": "makeAnEpicNFT",
      "outputs": [],
      "stateMutability": "nonpayable",
      "type": "function"
    },
    {
      "inputs": [],
      "name": "name",
      "outputs": [
        {
          "internalType": "string",
          "name": "",
          "type": "string"
        }
      ],
      "stateMutability": "view",
      "type": "function"
    },
    {
      "inputs": [
        {
          "internalType": "uint256",
          "name": "tokenId",
          "type": "uint256"
        }
      ],
      "name": "ownerOf",
      "outputs": [
        {
          "internalType": "address",
          "name": "",
          "type": "address"
        }
      ],
      "stateMutability": "view",
      "type": "function"
    },
    {
      "inputs": [
        {
          "internalType": "uint256",
          "name": "tokenId",
          "type": "uint256"
        }
      ],
      "name": "pickRandomFirstWord",
      "outputs": [
        {
          "internalType": "string",
          "name": "",
          "type": "string"
        }
      ],
      "stateMutability": "view",
      "type": "function"
    },
    {
      "inputs": [
        {
          "internalType": "uint256",
          "name": "tokenId",
          "type": "uint256"
        }
      ],
      "name": "pickRandomSecondWord",
      "outputs": [
        {
          "internalType": "string",
          "name": "",
          "type": "string"
        }
      ],
      "stateMutability": "view",
      "type": "function"
    },
    {
      "inputs": [
        {
          "internalType": "uint256",
          "name": "tokenId",
          "type": "uint256"
        }
      ],
      "name": "pickRandomThirdWord",
      "outputs": [
        {
          "internalType": "string",
          "name": "",
          "type": "string"
        }
      ],
      "stateMutability": "view",
      "type": "function"
    },
    {
      "inputs": [
        {
          "internalType": "address",
          "name": "from",
          "type": "address"
        },
        {
          "internalType": "address",
          "name": "to",
          "type": "address"
        },
        {
          "internalType": "uint256",
          "name": "tokenId",
          "type": "uint256"
        }
      ],
      "name": "safeTransferFrom",
      "outputs": [],
      "stateMutability": "nonpayable",
      "type": "function"
    },
    {
      "inputs": [
        {
          "internalType": "address",
          "name": "from",
          "type": "address"
        },
        {
          "internalType": "address",
          "name": "to",
          "type": "address"
        },
        {
          "internalType": "uint256",
          "name": "tokenId",
          "type": "uint256"
        },
        {
          "internalType": "bytes",
          "name": "_data",
          "type": "bytes"
        }
      ],
      "name": "safeTransferFrom",
      "outputs": [],
      "stateMutability": "nonpayable",
      "type": "function"
    },
    {
      "inputs": [
        {
          "internalType": "address",
          "name": "operator",
          "type": "address"
        },
        {
          "internalType": "bool",
          "name": "approved",
          "type": "bool"
        }
      ],
      "name": "setApprovalForAll",
      "outputs": [],
      "stateMutability": "nonpayable",
      "type": "function"
    },
    {
      "inputs": [
        {
          "internalType": "bytes4",
          "name": "interfaceId",
          "type": "bytes4"
        }
      ],
      "name": "supportsInterface",
      "outputs": [
        {
          "internalType": "bool",
          "name": "",
          "type": "bool"
        }
      ],
      "stateMutability": "view",
      "type": "function"
    },
    {
      "inputs": [],
      "name": "symbol",
      "outputs": [
        {
          "internalType": "string",
          "name": "",
          "type": "string"
        }
      ],
      "stateMutability": "view",
      "type": "function"
    },
    {
      "inputs": [
        {
          "internalType": "uint256",
          "name": "tokenId",
          "type": "uint256"
        }
      ],
      "name": "tokenURI",
      "outputs": [
        {
          "internalType": "string",
          "name": "",
          "type": "string"
        }
      ],
      "stateMutability": "view",
      "type": "function"
    },
    {
      "inputs": [
        {
          "internalType": "address",
          "name": "from",
          "type": "address"
        },
        {
          "internalType": "address",
          "name": "to",
          "type": "address"
        },
        {
          "internalType": "uint256",
          "name": "tokenId",
          "type": "uint256"
        }
      ],
      "name": "transferFrom",
      "outputs": [],
      "stateMutability": "nonpayable",
      "type": "function"
    }
  ],
  "bytecode": "0x608060405260405180610160016040528061012f81526020016200460061012f913960089080519060200190620000389291906200097f565b506040518061018001604052806040518060400160405280600381526020017f796553000000000000000000000000000000000000000000000000000000000081525081526020016040518060400160405280600281526020017f6e4f00000000000000000000000000000000000000000000000000000000000081525081526020016040518060400160405280600581526020017f6d6179624500000000000000000000000000000000000000000000000000000081525081526020016040518060400160405280600881526020017f736f6d74696d655300000000000000000000000000000000000000000000000081525081526020016040518060400160405280600681526020017f616c77617953000000000000000000000000000000000000000000000000000081525081526020016040518060400160405280600581526020017f6e6576655200000000000000000000000000000000000000000000000000000081525081526020016040518060400160405280600881526020017f7768656e6576655200000000000000000000000000000000000000000000000081525081526020016040518060400160405280600b81526020017f6f63636173696f6e616c7900000000000000000000000000000000000000000081525081526020016040518060400160405280600781526020017f706572686170530000000000000000000000000000000000000000000000000081525081526020016040518060400160405280600a81526020017f756c74696d6174656c590000000000000000000000000000000000000000000081525081526020016040518060400160405280600881526020017f70726f6261626c5900000000000000000000000000000000000000000000000081525081526020016040518060400160405280600781526020017f756e6b6e6f774e00000000000000000000000000000000000000000000000000815250815250600990600c6200031992919062000a10565b506040518060e001604052806040518060400160405280600381526020017f666f72000000000000000000000000000000000000000000000000000000000081525081526020016040518060400160405280600381526020017f616e64000000000000000000000000000000000000000000000000000000000081525081526020016040518060400160405280600381526020017f6e6f72000000000000000000000000000000000000000000000000000000000081525081526020016040518060400160405280600381526020017f627574000000000000000000000000000000000000000000000000000000000081525081526020016040518060400160405280600281526020017f6f7200000000000000000000000000000000000000000000000000000000000081525081526020016040518060400160405280600381526020017f796574000000000000000000000000000000000000000000000000000000000081525081526020016040518060400160405280600281526020017f736f000000000000000000000000000000000000000000000000000000000000815250815250600a906007620004d292919062000a77565b506040518061018001604052806040518060400160405280600381526020017f596553000000000000000000000000000000000000000000000000000000000081525081526020016040518060400160405280600281526020017f4e4f00000000000000000000000000000000000000000000000000000000000081525081526020016040518060400160405280600581526020017f4d6179624500000000000000000000000000000000000000000000000000000081525081526020016040518060400160405280600881526020017f536f6d74696d655300000000000000000000000000000000000000000000000081525081526020016040518060400160405280600681526020017f416c77617953000000000000000000000000000000000000000000000000000081525081526020016040518060400160405280600581526020017f4e6576655200000000000000000000000000000000000000000000000000000081525081526020016040518060400160405280600881526020017f5768656e6576655200000000000000000000000000000000000000000000000081525081526020016040518060400160405280600b81526020017f4f63636173696f6e616c7900000000000000000000000000000000000000000081525081526020016040518060400160405280600781526020017f506572686170530000000000000000000000000000000000000000000000000081525081526020016040518060400160405280600a81526020017f556c74696d6174656c590000000000000000000000000000000000000000000081525081526020016040518060400160405280600881526020017f50726f6261626c5900000000000000000000000000000000000000000000000081525081526020016040518060400160405280600781526020017f556e6b6e6f774e00000000000000000000000000000000000000000000000000815250815250600b90600c620007b392919062000a10565b50348015620007c157600080fd5b506040518060400160405280600981526020017f5371756172654e465400000000000000000000000000000000000000000000008152506040518060400160405280600681526020017f53515541524500000000000000000000000000000000000000000000000000008152508160009080519060200190620008469291906200097f565b5080600190805190602001906200085f9291906200097f565b505050620008ad6040518060400160405280601e81526020017f54686973206973206d79204e465420636f6e74726163742e20576f6168210000815250620008b360201b620012b91760201c565b62000c98565b6200095381604051602401620008ca919062000bac565b6040516020818303038152906040527f41304fac000000000000000000000000000000000000000000000000000000007bffffffffffffffffffffffffffffffffffffffffffffffffffffffff19166020820180517bffffffffffffffffffffffffffffffffffffffffffffffffffffffff83818316178352505050506200095660201b60201c565b50565b60008151905060006a636f6e736f6c652e6c6f679050602083016000808483855afa5050505050565b8280546200098d9062000c22565b90600052602060002090601f016020900481019282620009b15760008555620009fd565b82601f10620009cc57805160ff1916838001178555620009fd565b82800160010185558215620009fd579182015b82811115620009fc578251825591602001919060010190620009df565b5b50905062000a0c919062000ade565b5090565b82805482825590600052602060002090810192821562000a64579160200282015b8281111562000a6357825182908051906020019062000a529291906200097f565b509160200191906001019062000a31565b5b50905062000a73919062000afd565b5090565b82805482825590600052602060002090810192821562000acb579160200282015b8281111562000aca57825182908051906020019062000ab99291906200097f565b509160200191906001019062000a98565b5b50905062000ada919062000afd565b5090565b5b8082111562000af957600081600090555060010162000adf565b5090565b5b8082111562000b21576000818162000b17919062000b25565b5060010162000afe565b5090565b50805462000b339062000c22565b6000825580601f1062000b47575062000b68565b601f01602090049060005260206000209081019062000b67919062000ade565b5b50565b600062000b788262000bd0565b62000b84818562000bdb565b935062000b9681856020860162000bec565b62000ba18162000c87565b840191505092915050565b6000602082019050818103600083015262000bc8818462000b6b565b905092915050565b600081519050919050565b600082825260208201905092915050565b60005b8381101562000c0c57808201518184015260208101905062000bef565b8381111562000c1c576000848401525b50505050565b6000600282049050600182168062000c3b57607f821691505b6020821081141562000c525762000c5162000c58565b5b50919050565b7f4e487b7100000000000000000000000000000000000000000000000000000000600052602260045260246000fd5b6000601f19601f8301169050919050565b6139588062000ca86000396000f3fe608060405234801561001057600080fd5b50600436106101165760003560e01c806370a08231116100a2578063b88d4fde11610071578063b88d4fde14610305578063c575757a14610321578063c87b56dd14610351578063de9d132f14610381578063e985e9c51461038b57610116565b806370a082311461026b57806395d89b411461029b578063a22cb465146102b9578063b187301f146102d557610116565b8063095ea7b3116100e9578063095ea7b3146101b757806323b872dd146101d35780632de38d68146101ef57806342842e0e1461021f5780636352211e1461023b57610116565b806301ffc9a71461011b578063060475901461014b57806306fdde0314610169578063081812fc14610187575b600080fd5b6101356004803603810190610130919061254c565b6103bb565b60405161014291906131ae565b60405180910390f35b61015361049d565b6040516101609190613449565b60405180910390f35b6101716104ba565b60405161017e91906131c9565b60405180910390f35b6101a1600480360381019061019c919061259e565b61054c565b6040516101ae919061311e565b60405180910390f35b6101d160048036038101906101cc9190612510565b6105d1565b005b6101ed60048036038101906101e8919061240a565b6106e9565b005b6102096004803603810190610204919061259e565b610749565b60405161021691906131c9565b60405180910390f35b6102396004803603810190610234919061240a565b610867565b005b6102556004803603810190610250919061259e565b610887565b604051610262919061311e565b60405180910390f35b610285600480360381019061028091906123a5565b610939565b6040516102929190613449565b60405180910390f35b6102a36109f1565b6040516102b091906131c9565b60405180910390f35b6102d360048036038101906102ce91906124d4565b610a83565b005b6102ef60048036038101906102ea919061259e565b610c04565b6040516102fc91906131c9565b60405180910390f35b61031f600480360381019061031a9190612459565b610d22565b005b61033b6004803603810190610336919061259e565b610d84565b60405161034891906131c9565b60405180910390f35b61036b6004803603810190610366919061259e565b610ea2565b60405161037891906131c9565b60405180910390f35b610389610ff4565b005b6103a560048036038101906103a091906123ce565b611225565b6040516103b291906131ae565b60405180910390f35b60007f80ac58cd000000000000000000000000000000000000000000000000000000007bffffffffffffffffffffffffffffffffffffffffffffffffffffffff1916827bffffffffffffffffffffffffffffffffffffffffffffffffffffffff1916148061048657507f5b5e139f000000000000000000000000000000000000000000000000000000007bffffffffffffffffffffffffffffffffffffffffffffffffffffffff1916827bffffffffffffffffffffffffffffffffffffffffffffffffffffffff1916145b80610496575061049582611352565b5b9050919050565b600060016104ab60076113bc565b6104b5919061351d565b905090565b6060600080546104c9906136e8565b80601f01602080910402602001604051908101604052809291908181526020018280546104f5906136e8565b80156105425780601f1061051757610100808354040283529160200191610542565b820191906000526020600020905b81548152906001019060200180831161052557829003601f168201915b5050505050905090565b6000610557826113ca565b610596576040517f08c379a000000000000000000000000000000000000000000000000000000000815260040161058d906133a9565b60405180910390fd5b6004600083815260200190815260200160002060009054906101000a900473ffffffffffffffffffffffffffffffffffffffff169050919050565b60006105dc82610887565b90508073ffffffffffffffffffffffffffffffffffffffff168373ffffffffffffffffffffffffffffffffffffffff16141561064d576040517f08c379a000000000000000000000000000000000000000000000000000000000815260040161064490613409565b60405180910390fd5b8073ffffffffffffffffffffffffffffffffffffffff1661066c611436565b73ffffffffffffffffffffffffffffffffffffffff16148061069b575061069a81610695611436565b611225565b5b6106da576040517f08c379a00000000000000000000000000000000000000000000000000000000081526004016106d1906132e9565b60405180910390fd5b6106e4838361143e565b505050565b6106fa6106f4611436565b826114f7565b610739576040517f08c379a000000000000000000000000000000000000000000000000000000000815260040161073090613429565b60405180910390fd5b6107448383836115d5565b505050565b6060600061077d61075984611831565b60405160200161076991906130da565b6040516020818303038152906040526119de565b9050600980549050816107909190613763565b9050600981815481106107cc577f4e487b7100000000000000000000000000000000000000000000000000000000600052603260045260246000fd5b9060005260206000200180546107e1906136e8565b80601f016020809104026020016040519081016040528092919081815260200182805461080d906136e8565b801561085a5780601f1061082f5761010080835404028352916020019161085a565b820191906000526020600020905b81548152906001019060200180831161083d57829003601f168201915b5050505050915050919050565b61088283838360405180602001604052806000815250610d22565b505050565b6000806002600084815260200190815260200160002060009054906101000a900473ffffffffffffffffffffffffffffffffffffffff169050600073ffffffffffffffffffffffffffffffffffffffff168173ffffffffffffffffffffffffffffffffffffffff161415610930576040517f08c379a000000000000000000000000000000000000000000000000000000000815260040161092790613329565b60405180910390fd5b80915050919050565b60008073ffffffffffffffffffffffffffffffffffffffff168273ffffffffffffffffffffffffffffffffffffffff1614156109aa576040517f08c379a00000000000000000000000000000000000000000000000000000000081526004016109a190613309565b60405180910390fd5b600360008373ffffffffffffffffffffffffffffffffffffffff1673ffffffffffffffffffffffffffffffffffffffff168152602001908152602001600020549050919050565b606060018054610a00906136e8565b80601f0160208091040260200160405190810160405280929190818152602001828054610a2c906136e8565b8015610a795780601f10610a4e57610100808354040283529160200191610a79565b820191906000526020600020905b815481529060010190602001808311610a5c57829003601f168201915b5050505050905090565b610a8b611436565b73ffffffffffffffffffffffffffffffffffffffff168273ffffffffffffffffffffffffffffffffffffffff161415610af9576040517f08c379a0000000000000000000000000000000000000000000000000000000008152600401610af0906132a9565b60405180910390fd5b8060056000610b06611436565b73ffffffffffffffffffffffffffffffffffffffff1673ffffffffffffffffffffffffffffffffffffffff16815260200190815260200160002060008473ffffffffffffffffffffffffffffffffffffffff1673ffffffffffffffffffffffffffffffffffffffff16815260200190815260200160002060006101000a81548160ff0219169083151502179055508173ffffffffffffffffffffffffffffffffffffffff16610bb3611436565b73ffffffffffffffffffffffffffffffffffffffff167f17307eab39ab6107e8899845ad3d59bd9653f200f220920489ca2b5937696c3183604051610bf891906131ae565b60405180910390a35050565b60606000610c38610c1484611831565b604051602001610c249190613073565b6040516020818303038152906040526119de565b9050600a8054905081610c4b9190613763565b9050600a8181548110610c87577f4e487b7100000000000000000000000000000000000000000000000000000000600052603260045260246000fd5b906000526020600020018054610c9c906136e8565b80601f0160208091040260200160405190810160405280929190818152602001828054610cc8906136e8565b8015610d155780601f10610cea57610100808354040283529160200191610d15565b820191906000526020600020905b815481529060010190602001808311610cf857829003601f168201915b5050505050915050919050565b610d33610d2d611436565b836114f7565b610d72576040517f08c379a0000000000000000000000000000000000000000000000000000000008152600401610d6990613429565b60405180910390fd5b610d7e84848484611a11565b50505050565b60606000610db8610d9484611831565b604051602001610da49190613051565b6040516020818303038152906040526119de565b9050600b8054905081610dcb9190613763565b9050600b8181548110610e07577f4e487b7100000000000000000000000000000000000000000000000000000000600052603260045260246000fd5b906000526020600020018054610e1c906136e8565b80601f0160208091040260200160405190810160405280929190818152602001828054610e48906136e8565b8015610e955780601f10610e6a57610100808354040283529160200191610e95565b820191906000526020600020905b815481529060010190602001808311610e7857829003601f168201915b5050505050915050919050565b6060610ead826113ca565b610eec576040517f08c379a0000000000000000000000000000000000000000000000000000000008152600401610ee390613389565b60405180910390fd5b6000600660008481526020019081526020016000208054610f0c906136e8565b80601f0160208091040260200160405190810160405280929190818152602001828054610f38906136e8565b8015610f855780601f10610f5a57610100808354040283529160200191610f85565b820191906000526020600020905b815481529060010190602001808311610f6857829003601f168201915b505050505090506000610f96611a6d565b9050600081511415610fac578192505050610fef565b600082511115610fe1578082604051602001610fc9929190612fcd565b60405160208183030381529060405292505050610fef565b610fea84611a84565b925050505b919050565b6032610ffe61049d565b1061103e576040517f08c379a000000000000000000000000000000000000000000000000000000000815260040161103590613269565b60405180910390fd5b600061104a60076113bc565b9050600061105782610749565b9050600061106483610c04565b9050600061107184610d84565b9050600083838360405160200161108a93929190612ff1565b604051602081830303815290604052905060006008826040516020016110b1929190613022565b604051602081830303815290604052905060006110f6836110d184611b2b565b6040516020016110e2929190613095565b604051602081830303815290604052611b2b565b905060008160405160200161110b91906130fc565b604051602081830303815290604052905061115a6040518060400160405280601581526020017f0a2d2d2d2d2d2d2d2d2d2d2d2d2d2d2d2d2d2d2d2d00000000000000000000008152506112b9565b611163816112b9565b6111a16040518060400160405280601581526020017f2d2d2d2d2d2d2d2d2d2d2d2d2d2d2d2d2d2d2d2d0a00000000000000000000008152506112b9565b6111ab3389611ce9565b6111b58882611d07565b6111bf6007611d7b565b6111e26040518060600160405280602581526020016138be602591398933611d91565b7febb98688741ffa4c7589bf325de30cf7becb63de567842e1ccdb6cb949fdc82c3389604051611213929190613185565b60405180910390a15050505050505050565b6000600560008473ffffffffffffffffffffffffffffffffffffffff1673ffffffffffffffffffffffffffffffffffffffff16815260200190815260200160002060008373ffffffffffffffffffffffffffffffffffffffff1673ffffffffffffffffffffffffffffffffffffffff16815260200190815260200160002060009054906101000a900460ff16905092915050565b61134f816040516024016112cd91906131c9565b6040516020818303038152906040527f41304fac000000000000000000000000000000000000000000000000000000007bffffffffffffffffffffffffffffffffffffffffffffffffffffffff19166020820180517bffffffffffffffffffffffffffffffffffffffffffffffffffffffff8381831617835250505050611e30565b50565b60007f01ffc9a7000000000000000000000000000000000000000000000000000000007bffffffffffffffffffffffffffffffffffffffffffffffffffffffff1916827bffffffffffffffffffffffffffffffffffffffffffffffffffffffff1916149050919050565b600081600001549050919050565b60008073ffffffffffffffffffffffffffffffffffffffff166002600084815260200190815260200160002060009054906101000a900473ffffffffffffffffffffffffffffffffffffffff1673ffffffffffffffffffffffffffffffffffffffff1614159050919050565b600033905090565b816004600083815260200190815260200160002060006101000a81548173ffffffffffffffffffffffffffffffffffffffff021916908373ffffffffffffffffffffffffffffffffffffffff160217905550808273ffffffffffffffffffffffffffffffffffffffff166114b183610887565b73ffffffffffffffffffffffffffffffffffffffff167f8c5be1e5ebec7d5bd14f71427d1e84f3dd0314c0f7b2291e5b200ac8c7c3b92560405160405180910390a45050565b6000611502826113ca565b611541576040517f08c379a0000000000000000000000000000000000000000000000000000000008152600401611538906132c9565b60405180910390fd5b600061154c83610887565b90508073ffffffffffffffffffffffffffffffffffffffff168473ffffffffffffffffffffffffffffffffffffffff1614806115bb57508373ffffffffffffffffffffffffffffffffffffffff166115a38461054c565b73ffffffffffffffffffffffffffffffffffffffff16145b806115cc57506115cb8185611225565b5b91505092915050565b8273ffffffffffffffffffffffffffffffffffffffff166115f582610887565b73ffffffffffffffffffffffffffffffffffffffff161461164b576040517f08c379a0000000000000000000000000000000000000000000000000000000008152600401611642906133c9565b60405180910390fd5b600073ffffffffffffffffffffffffffffffffffffffff168273ffffffffffffffffffffffffffffffffffffffff1614156116bb576040517f08c379a00000000000000000000000000000000000000000000000000000000081526004016116b290613289565b60405180910390fd5b6116c6838383611e59565b6116d160008261143e565b6001600360008573ffffffffffffffffffffffffffffffffffffffff1673ffffffffffffffffffffffffffffffffffffffff168152602001908152602001600020600082825461172191906135fe565b925050819055506001600360008473ffffffffffffffffffffffffffffffffffffffff1673ffffffffffffffffffffffffffffffffffffffff1681526020019081526020016000206000828254611778919061351d565b92505081905550816002600083815260200190815260200160002060006101000a81548173ffffffffffffffffffffffffffffffffffffffff021916908373ffffffffffffffffffffffffffffffffffffffff160217905550808273ffffffffffffffffffffffffffffffffffffffff168473ffffffffffffffffffffffffffffffffffffffff167fddf252ad1be2c89b69c2b068fc378daa952ba7f163c4a11628f55a4df523b3ef60405160405180910390a4505050565b60606000821415611879576040518060400160405280600181526020017f300000000000000000000000000000000000000000000000000000000000000081525090506119d9565b600082905060005b600082146118ab5780806118949061371a565b915050600a826118a49190613573565b9150611881565b60008167ffffffffffffffff8111156118ed577f4e487b7100000000000000000000000000000000000000000000000000000000600052604160045260246000fd5b6040519080825280601f01601f19166020018201604052801561191f5781602001600182028036833780820191505090505b5090505b600085146119d25760018261193891906135fe565b9150600a856119479190613763565b6030611953919061351d565b60f81b81838151811061198f577f4e487b7100000000000000000000000000000000000000000000000000000000600052603260045260246000fd5b60200101907effffffffffffffffffffffffffffffffffffffffffffffffffffffffffffff1916908160001a905350600a856119cb9190613573565b9450611923565b8093505050505b919050565b6000816040516020016119f19190612fb6565b6040516020818303038152906040528051906020012060001c9050919050565b611a1c8484846115d5565b611a2884848484611e5e565b611a67576040517f08c379a0000000000000000000000000000000000000000000000000000000008152600401611a5e90613229565b60405180910390fd5b50505050565b606060405180602001604052806000815250905090565b6060611a8f826113ca565b611ace576040517f08c379a0000000000000000000000000000000000000000000000000000000008152600401611ac5906133e9565b60405180910390fd5b6000611ad8611a6d565b90506000815111611af85760405180602001604052806000815250611b23565b80611b0284611831565b604051602001611b13929190612fcd565b6040516020818303038152906040525b915050919050565b60606000825190506000811415611b545760405180602001604052806000815250915050611ce4565b60006003600283611b65919061351d565b611b6f9190613573565b6004611b7b91906135a4565b90506000602082611b8c919061351d565b67ffffffffffffffff811115611bcb577f4e487b7100000000000000000000000000000000000000000000000000000000600052604160045260246000fd5b6040519080825280601f01601f191660200182016040528015611bfd5781602001600182028036833780820191505090505b50905060006040518060600160405280604081526020016138e3604091399050600181016020830160005b86811015611ca15760038101905062ffffff818a015116603f8160121c168401518060081b905060ff603f83600c1c1686015116810190508060081b905060ff603f8360061c1686015116810190508060081b905060ff603f831686015116810190508060e01b90508084526004840193505050611c28565b506003860660018114611cbb5760028114611ccb57611cd6565b613d3d60f01b6002830352611cd6565b603d60f81b60018303525b508484525050819450505050505b919050565b611d03828260405180602001604052806000815250611ff5565b5050565b611d10826113ca565b611d4f576040517f08c379a0000000000000000000000000000000000000000000000000000000008152600401611d4690613349565b60405180910390fd5b80600660008481526020019081526020016000209080519060200190611d76929190612231565b505050565b6001816000016000828254019250508190555050565b611e2b838383604051602401611da9939291906131eb565b6040516020818303038152906040527fe3849f79000000000000000000000000000000000000000000000000000000007bffffffffffffffffffffffffffffffffffffffffffffffffffffffff19166020820180517bffffffffffffffffffffffffffffffffffffffffffffffffffffffff8381831617835250505050611e30565b505050565b60008151905060006a636f6e736f6c652e6c6f679050602083016000808483855afa5050505050565b505050565b6000611e7f8473ffffffffffffffffffffffffffffffffffffffff16612050565b15611fe8578373ffffffffffffffffffffffffffffffffffffffff1663150b7a02611ea8611436565b8786866040518563ffffffff1660e01b8152600401611eca9493929190613139565b602060405180830381600087803b158015611ee457600080fd5b505af1925050508015611f1557506040513d601f19601f82011682018060405250810190611f129190612575565b60015b611f98573d8060008114611f45576040519150601f19603f3d011682016040523d82523d6000602084013e611f4a565b606091505b50600081511415611f90576040517f08c379a0000000000000000000000000000000000000000000000000000000008152600401611f8790613229565b60405180910390fd5b805181602001fd5b63150b7a0260e01b7bffffffffffffffffffffffffffffffffffffffffffffffffffffffff1916817bffffffffffffffffffffffffffffffffffffffffffffffffffffffff191614915050611fed565b600190505b949350505050565b611fff8383612063565b61200c6000848484611e5e565b61204b576040517f08c379a000000000000000000000000000000000000000000000000000000000815260040161204290613229565b60405180910390fd5b505050565b600080823b905060008111915050919050565b600073ffffffffffffffffffffffffffffffffffffffff168273ffffffffffffffffffffffffffffffffffffffff1614156120d3576040517f08c379a00000000000000000000000000000000000000000000000000000000081526004016120ca90613369565b60405180910390fd5b6120dc816113ca565b1561211c576040517f08c379a000000000000000000000000000000000000000000000000000000000815260040161211390613249565b60405180910390fd5b61212860008383611e59565b6001600360008473ffffffffffffffffffffffffffffffffffffffff1673ffffffffffffffffffffffffffffffffffffffff1681526020019081526020016000206000828254612178919061351d565b92505081905550816002600083815260200190815260200160002060006101000a81548173ffffffffffffffffffffffffffffffffffffffff021916908373ffffffffffffffffffffffffffffffffffffffff160217905550808273ffffffffffffffffffffffffffffffffffffffff16600073ffffffffffffffffffffffffffffffffffffffff167fddf252ad1be2c89b69c2b068fc378daa952ba7f163c4a11628f55a4df523b3ef60405160405180910390a45050565b82805461223d906136e8565b90600052602060002090601f01602090048101928261225f57600085556122a6565b82601f1061227857805160ff19168380011785556122a6565b828001600101855582156122a6579182015b828111156122a557825182559160200191906001019061228a565b5b5090506122b391906122b7565b5090565b5b808211156122d05760008160009055506001016122b8565b5090565b60006122e76122e284613495565b613464565b9050828152602081018484840111156122ff57600080fd5b61230a8482856136a6565b509392505050565b60008135905061232181613861565b92915050565b60008135905061233681613878565b92915050565b60008135905061234b8161388f565b92915050565b6000815190506123608161388f565b92915050565b600082601f83011261237757600080fd5b81356123878482602086016122d4565b91505092915050565b60008135905061239f816138a6565b92915050565b6000602082840312156123b757600080fd5b60006123c584828501612312565b91505092915050565b600080604083850312156123e157600080fd5b60006123ef85828601612312565b925050602061240085828601612312565b9150509250929050565b60008060006060848603121561241f57600080fd5b600061242d86828701612312565b935050602061243e86828701612312565b925050604061244f86828701612390565b9150509250925092565b6000806000806080858703121561246f57600080fd5b600061247d87828801612312565b945050602061248e87828801612312565b935050604061249f87828801612390565b925050606085013567ffffffffffffffff8111156124bc57600080fd5b6124c887828801612366565b91505092959194509250565b600080604083850312156124e757600080fd5b60006124f585828601612312565b925050602061250685828601612327565b9150509250929050565b6000806040838503121561252357600080fd5b600061253185828601612312565b925050602061254285828601612390565b9150509250929050565b60006020828403121561255e57600080fd5b600061256c8482850161233c565b91505092915050565b60006020828403121561258757600080fd5b600061259584828501612351565b91505092915050565b6000602082840312156125b057600080fd5b60006125be84828501612390565b91505092915050565b6125d081613632565b82525050565b6125df81613644565b82525050565b60006125f0826134da565b6125fa81856134f0565b935061260a8185602086016136b5565b61261381613850565b840191505092915050565b6000612629826134e5565b6126338185613501565b93506126438185602086016136b5565b61264c81613850565b840191505092915050565b6000612662826134e5565b61266c8185613512565b935061267c8185602086016136b5565b80840191505092915050565b60008154612695816136e8565b61269f8186613512565b945060018216600081146126ba57600181146126cb576126fe565b60ff198316865281860193506126fe565b6126d4856134c5565b60005b838110156126f6578154818901526001820191506020810190506126d7565b838801955050505b50505092915050565b6000612714603283613501565b91507f4552433732313a207472616e7366657220746f206e6f6e20455243373231526560008301527f63656976657220696d706c656d656e74657200000000000000000000000000006020830152604082019050919050565b600061277a601c83613501565b91507f4552433732313a20746f6b656e20616c7265616479206d696e746564000000006000830152602082019050919050565b60006127ba600a83613512565b91507f54484952445f574f5244000000000000000000000000000000000000000000006000830152600a82019050919050565b60006127fa601083613501565b91507f4d6178204e465473206d696e74656421000000000000000000000000000000006000830152602082019050919050565b600061283a602483613501565b91507f4552433732313a207472616e7366657220746f20746865207a65726f2061646460008301527f72657373000000000000000000000000000000000000000000000000000000006020830152604082019050919050565b60006128a0601983613501565b91507f4552433732313a20617070726f766520746f2063616c6c6572000000000000006000830152602082019050919050565b60006128e0606383613512565b91507f222c20226465736372697074696f6e223a20224120686967686c79206163636c60008301527f61696d656420636f6c6c656374696f6e206f6620737175617265732e222c202260208301527f696d616765223a2022646174613a696d6167652f7376672b786d6c3b6261736560408301527f36342c00000000000000000000000000000000000000000000000000000000006060830152606382019050919050565b6000612992600b83613512565b91507f5345434f4e445f574f52440000000000000000000000000000000000000000006000830152600b82019050919050565b60006129d2602c83613501565b91507f4552433732313a206f70657261746f7220717565727920666f72206e6f6e657860008301527f697374656e7420746f6b656e00000000000000000000000000000000000000006020830152604082019050919050565b6000612a38600d83613512565b91507f3c2f746578743e3c2f7376673e000000000000000000000000000000000000006000830152600d82019050919050565b6000612a78603883613501565b91507f4552433732313a20617070726f76652063616c6c6572206973206e6f74206f7760008301527f6e6572206e6f7220617070726f76656420666f7220616c6c00000000000000006020830152604082019050919050565b6000612ade602a83613501565b91507f4552433732313a2062616c616e636520717565727920666f7220746865207a6560008301527f726f2061646472657373000000000000000000000000000000000000000000006020830152604082019050919050565b6000612b44602983613501565b91507f4552433732313a206f776e657220717565727920666f72206e6f6e657869737460008301527f656e7420746f6b656e00000000000000000000000000000000000000000000006020830152604082019050919050565b6000612baa602e83613501565b91507f45524337323155524953746f726167653a2055524920736574206f66206e6f6e60008301527f6578697374656e7420746f6b656e0000000000000000000000000000000000006020830152604082019050919050565b6000612c10600283613512565b91507f227d0000000000000000000000000000000000000000000000000000000000006000830152600282019050919050565b6000612c50602083613501565b91507f4552433732313a206d696e7420746f20746865207a65726f20616464726573736000830152602082019050919050565b6000612c90603183613501565b91507f45524337323155524953746f726167653a2055524920717565727920666f722060008301527f6e6f6e6578697374656e7420746f6b656e0000000000000000000000000000006020830152604082019050919050565b6000612cf6602c83613501565b91507f4552433732313a20617070726f76656420717565727920666f72206e6f6e657860008301527f697374656e7420746f6b656e00000000000000000000000000000000000000006020830152604082019050919050565b6000612d5c602983613501565b91507f4552433732313a207472616e73666572206f6620746f6b656e2074686174206960008301527f73206e6f74206f776e00000000000000000000000000000000000000000000006020830152604082019050919050565b6000612dc2602f83613501565b91507f4552433732314d657461646174613a2055524920717565727920666f72206e6f60008301527f6e6578697374656e7420746f6b656e00000000000000000000000000000000006020830152604082019050919050565b6000612e28600a83613512565b91507f7b226e616d65223a2022000000000000000000000000000000000000000000006000830152600a82019050919050565b6000612e68602183613501565b91507f4552433732313a20617070726f76616c20746f2063757272656e74206f776e6560008301527f72000000000000000000000000000000000000000000000000000000000000006020830152604082019050919050565b6000612ece600a83613512565b91507f46495253545f574f5244000000000000000000000000000000000000000000006000830152600a82019050919050565b6000612f0e601d83613512565b91507f646174613a6170706c69636174696f6e2f6a736f6e3b6261736536342c0000006000830152601d82019050919050565b6000612f4e603183613501565b91507f4552433732313a207472616e736665722063616c6c6572206973206e6f74206f60008301527f776e6572206e6f7220617070726f7665640000000000000000000000000000006020830152604082019050919050565b612fb08161369c565b82525050565b6000612fc28284612657565b915081905092915050565b6000612fd98285612657565b9150612fe58284612657565b91508190509392505050565b6000612ffd8286612657565b91506130098285612657565b91506130158284612657565b9150819050949350505050565b600061302e8285612688565b915061303a8284612657565b915061304582612a2b565b91508190509392505050565b600061305c826127ad565b91506130688284612657565b915081905092915050565b600061307e82612985565b915061308a8284612657565b915081905092915050565b60006130a082612e1b565b91506130ac8285612657565b91506130b7826128d3565b91506130c38284612657565b91506130ce82612c03565b91508190509392505050565b60006130e582612ec1565b91506130f18284612657565b915081905092915050565b600061310782612f01565b91506131138284612657565b915081905092915050565b600060208201905061313360008301846125c7565b92915050565b600060808201905061314e60008301876125c7565b61315b60208301866125c7565b6131686040830185612fa7565b818103606083015261317a81846125e5565b905095945050505050565b600060408201905061319a60008301856125c7565b6131a76020830184612fa7565b9392505050565b60006020820190506131c360008301846125d6565b92915050565b600060208201905081810360008301526131e3818461261e565b905092915050565b60006060820190508181036000830152613205818661261e565b90506132146020830185612fa7565b61322160408301846125c7565b949350505050565b6000602082019050818103600083015261324281612707565b9050919050565b600060208201905081810360008301526132628161276d565b9050919050565b60006020820190508181036000830152613282816127ed565b9050919050565b600060208201905081810360008301526132a28161282d565b9050919050565b600060208201905081810360008301526132c281612893565b9050919050565b600060208201905081810360008301526132e2816129c5565b9050919050565b6000602082019050818103600083015261330281612a6b565b9050919050565b6000602082019050818103600083015261332281612ad1565b9050919050565b6000602082019050818103600083015261334281612b37565b9050919050565b6000602082019050818103600083015261336281612b9d565b9050919050565b6000602082019050818103600083015261338281612c43565b9050919050565b600060208201905081810360008301526133a281612c83565b9050919050565b600060208201905081810360008301526133c281612ce9565b9050919050565b600060208201905081810360008301526133e281612d4f565b9050919050565b6000602082019050818103600083015261340281612db5565b9050919050565b6000602082019050818103600083015261342281612e5b565b9050919050565b6000602082019050818103600083015261344281612f41565b9050919050565b600060208201905061345e6000830184612fa7565b92915050565b6000604051905081810181811067ffffffffffffffff8211171561348b5761348a613821565b5b8060405250919050565b600067ffffffffffffffff8211156134b0576134af613821565b5b601f19601f8301169050602081019050919050565b60008190508160005260206000209050919050565b600081519050919050565b600081519050919050565b600082825260208201905092915050565b600082825260208201905092915050565b600081905092915050565b60006135288261369c565b91506135338361369c565b9250827fffffffffffffffffffffffffffffffffffffffffffffffffffffffffffffffff0382111561356857613567613794565b5b828201905092915050565b600061357e8261369c565b91506135898361369c565b925082613599576135986137c3565b5b828204905092915050565b60006135af8261369c565b91506135ba8361369c565b9250817fffffffffffffffffffffffffffffffffffffffffffffffffffffffffffffffff04831182151516156135f3576135f2613794565b5b828202905092915050565b60006136098261369c565b91506136148361369c565b92508282101561362757613626613794565b5b828203905092915050565b600061363d8261367c565b9050919050565b60008115159050919050565b60007fffffffff0000000000000000000000000000000000000000000000000000000082169050919050565b600073ffffffffffffffffffffffffffffffffffffffff82169050919050565b6000819050919050565b82818337600083830152505050565b60005b838110156136d35780820151818401526020810190506136b8565b838111156136e2576000848401525b50505050565b6000600282049050600182168061370057607f821691505b60208210811415613714576137136137f2565b5b50919050565b60006137258261369c565b91507fffffffffffffffffffffffffffffffffffffffffffffffffffffffffffffffff82141561375857613757613794565b5b600182019050919050565b600061376e8261369c565b91506137798361369c565b925082613789576137886137c3565b5b828206905092915050565b7f4e487b7100000000000000000000000000000000000000000000000000000000600052601160045260246000fd5b7f4e487b7100000000000000000000000000000000000000000000000000000000600052601260045260246000fd5b7f4e487b7100000000000000000000000000000000000000000000000000000000600052602260045260246000fd5b7f4e487b7100000000000000000000000000000000000000000000000000000000600052604160045260246000fd5b6000601f19601f8301169050919050565b61386a81613632565b811461387557600080fd5b50565b61388181613644565b811461388c57600080fd5b50565b61389881613650565b81146138a357600080fd5b50565b6138af8161369c565b81146138ba57600080fd5b5056fe416e204e465420772f20494420257320686173206265656e206d696e74656420746f2025734142434445464748494a4b4c4d4e4f505152535455565758595a6162636465666768696a6b6c6d6e6f707172737475767778797a303132333435363738392b2fa2646970667358221220582f34c6a2ffb816608524a70d269252216b2143f06376eb1c5cddf35c52e87964736f6c634300080000333c73766720786d6c6e733d27687474703a2f2f7777772e77332e6f72672f323030302f73766727207072657365727665417370656374526174696f3d27784d696e594d696e206d656574272076696577426f783d273020302033353020333530273e3c7374796c653e2e62617365207b2066696c6c3a2077686974653b20666f6e742d66616d696c793a2073657269663b20666f6e742d73697a653a20323470783b207d3c2f7374796c653e3c726563742077696474683d273130302527206865696768743d2731303025272066696c6c3d27626c61636b27202f3e3c7465787420783d273530252720793d273530252720636c6173733d27626173652720646f6d696e616e742d626173656c696e653d276d6964646c652720746578742d616e63686f723d276d6964646c65273e",
  "linkReferences": {},
  "deployedLinkReferences": {}
}